:100000000C942A000C943F000C943F000C943F0089
:100010000C943F000C943F000C943F000C943F0064
:100020000C943F000C943F000C943F000C943F0054
:100030000C943F000C943F000C943F000C943F0044
:100040000C943F000C943F000C943F000C943F0034
:100050000C943F0011241FBECFE5D8E0DEBFCDBF1A
:1000600010E0A0E6B0E0EEEDF8E002C005900D92E1
:10007000A037B107D9F70E94CD030C946D040C94FE
:1000800000004130A1F5813089F028F08230C9F0BC
:10009000833011F108952AB381E090E002C0880F07
:1000A000991F6A95E2F7822B8ABB089527B381E0F6
:1000B00090E002C0880F991F6A95E2F7822B87BBF8
:1000C000089524B381E090E002C0880F991F6A95DB
:1000D000E2F7822B84BB089521B381E090E002C057
:1000E000880F991F6A95E2F7822B81BB0895411111
:1000F00037C0813091F028F08230D9F0833029F177
:1001000008952AB381E090E002C0880F991F6A9594
:10011000E2F7809582238ABB089527B381E090E0BF
:1001200002C0880F991F6A95E2F78095822387BBEA
:10013000089524B381E090E002C0880F991F6A956A
:10014000E2F78095822384BB089521B381E090E09B
:1001500002C0880F991F6A95E2F78095822381BBC0
:1001600008954130A1F5813089F028F08230C9F03E
:10017000833011F108952BB381E090E002C0880F25
:10018000991F6A95E2F7822B8BBB089528B381E013
:1001900090E002C0880F991F6A95E2F7822B88BB16
:1001A000089525B381E090E002C0880F991F6A95F9
:1001B000E2F7822B85BB089522B381E090E002C074
:1001C000880F991F6A95E2F7822B82BB089541112F
:1001D00037C0813091F028F08230D9F0833029F196
:1001E00008952BB381E090E002C0880F991F6A95B3
:1001F000E2F7809582238BBB089528B381E090E0DD
:1002000002C0880F991F6A95E2F78095822388BB08
:10021000089525B381E090E002C0880F991F6A9588
:10022000E2F78095822385BB089522B381E090E0B8
:1002300002C0880F991F6A95E2F78095822382BBDE
:1002400008958130D1F028F0823059F18330E9F1FE
:1002500050C049B381E090E09C01062E02C0220FFD
:10026000331F0A94E2F7842F90E08223932302C085
:10027000959587956A95E2F7089546B381E090E0F9
:100280009C01062E02C0220F331F0A94E2F7842F2E
:1002900090E08223932302C0959587956A95E2F7B3
:1002A000089543B381E090E09C01062E02C0220F26
:1002B000331F0A94E2F7842F90E08223932302C035
:1002C000959587956A95E2F7089540B381E090E0AF
:1002D0009C01062E02C0220F331F0A94E2F7842FDE
:1002E00090E08223932302C0959587956A95E2F763
:1002F000089580E00895813041F028F0823039F08F
:10030000833039F008956ABB089567BB089564BBD4
:10031000089561BB0895813041F028F0823039F0B2
:10032000833039F008956BBB089568BB089565BBB1
:10033000089562BB089540E060E083E00E944100C0
:1003400040E061E083E00E94410040E062E083E041
:100350000E94410040E063E083E00E94410041E0F0
:1003600060E083E00E94B10041E061E083E00E9430
:10037000B10041E062E083E00E94B10041E063E04F
:1003800083E00E94B10041E064E083E00E9441000C
:1003900041E065E083E00E94410041E066E083E0E7
:1003A0000E94410041E067E083E00E94410041E09B
:1003B00064E083E00E94B10041E065E083E00E94D8
:1003C000B10041E066E083E00E94B10041E067E0F7
:1003D00083E00E94B10008951F93CF93DF93D4E090
:1003E0001FEF3EC040E06D2F83E00E94B100C0E0EF
:1003F0002FC06C2F83E00E942101811128C083ED62
:1004000090E30197F1F700C000006C2F83E00E9499
:100410002101811110C08C2F90E02D2F30E024504D
:100420003109880F991F880F991F805A9F4FFC012F
:10043000E20FF31F10816C2F83E00E94210104C0A2
:100440006C2F83E00E9421018823D1F303C0CF5F8A
:10045000C43078F241E06D2F83E00E94B100DF5F8D
:10046000D83008F4BFCF812FDF91CF911F9108952D
:1004700041E063E081E00E94B1008FEC97E00197DA
:10048000F1F700C0000040E063E081E00E94B100AD
:100490008FEC97E00197F1F700C000000895682FF6
:1004A00080E00E948B0141E061E081E00E94B100A8
:1004B00040E062E081E00E94B1000E9438020895AD
:1004C0002F923F924F925F926F927F928F929F9264
:1004D000AF92BF92CF92DF92EF92FF920F931F9352
:1004E000CF93DF93CDB7DEB728970FB6F894DEBF72
:1004F0000FBECDBF29833A834B835C836D837E839C
:10050000382E292EA0E00E94610409F081C080E30A
:100510000E944F02CBC02F813885492D582D672D61
:10052000762D852D942D01E00E943F04822E932E7E
:1005300048875F83B62FA72FF82FE92F02E00E948C
:100540003F04A22EB32EC42ED52EE62EF72E082F52
:10055000192F282D392D48855F816B2F7A2F8F2FEA
:100560009E2F0E94580428873F83942E852E762E36
:10057000672E582E492E0F2EFAE0AF2EF02DB12CFB
:10058000C12CD12CE12CF12C00E010E029813A8122
:100590004B815C816D817E81832D922D0E94E003D1
:1005A000A22EB32EC42ED52EE62EF72E082F192FED
:1005B00028853F81492D582D672D762D852D942D29
:1005C0000E9458042F833887942E852E762E672E0E
:1005D000582E492E0F2EFAE0AF2EF02DB12CC12C43
:1005E000D12CE12CF12C00E010E029813A814B81E3
:1005F0005C816D817E81832D922D0E94E20329838F
:100600003A834B835C836D837E83382E292E09C009
:1006100081E01886912C812C712C612C512C412C5D
:100620008F8329813A814B815C816D817E81832D0D
:10063000922DA0E00E94610409F06DCF2BC00F2E17
:10064000FAE0AF2EF02DB12CC12CD12CE12CF12CE5
:1006500000E010E02F813885492D582D672D762D2B
:10066000852D942D0E94E00380E3820F0E944F02AB
:100670002F813885492D582D672D762D852D942D68
:100680000E94E2032F833887942E852E762E672EC4
:10069000582E492E2F813885492D582D672D762DBE
:1006A000852D942DA1E00E94610449F628960FB68D
:1006B000F894DEBF0FBECDBFDF91CF911F910F9198
:1006C000FF90EF90DF90CF90BF90AF909F908F9072
:1006D0007F906F905F904F903F902F900895682F7C
:1006E00080E00E948B0140E061E081E00E94B10067
:1006F00040E062E081E00E94B1000E94380208956B
:1007000081E00E946F038FE19EE40197F1F700C042
:10071000000008952FE788E391E021508040904049
:10072000E1F700C0000061E080E00E947B0141E051
:1007300061E081E00E94410041E062E081E00E94CE
:10074000410041E063E081E00E94410082E00E94BC
:100750006F038FEC97E00197F1F700C0000088E38A
:100760000E946F038FEC97E00197F1F700C0000043
:100770008CE00E946F038FEC97E00197F1F700C0C7
:1007800000000E94800386E00E946F038FEC97E0D8
:100790000197F1F700C0000008950E948A030E94AB
:1007A0009B010E94EC01282F30E040E050E060E027
:1007B00070E080E090E00E94600280E090E00895A8
:1007C000689401C0E8948F929F92CF93DF930E9428
:1007D000EE03DF91CF919F908F9008958824992404
:1007E000F401E401B0E49F93AA279A158B049C04BA
:1007F000ED05FE05CF05D007A10798F4AD2FDC2F3E
:10080000CF2FFE2FE92D982C892E982F872F762F0A
:10081000652F542F432F322F2227B85031F7BF9125
:1008200027C01B2EBF91BB27220F331F441F551F0C
:10083000661F771F881F991F881C991CEE1FFF1FBA
:10084000CC1FDD1FAA1FBB1F8A149B04EC05FD05EE
:10085000CE05DF05A007B10748F08A189B08EC0910
:10086000FD09CE09DF09A00BB10B21601A94E1F656
:100870002EF49401AF01BE01CD01000C08950F9339
:10088000083090F0982F872F762F652F542F432F05
:10089000322F22270850F4CF220F331F441F551F39
:1008A000661F771F881F991F0A95B2F70F91089549
:1008B0002A0D3B1D4C1D5D1D6E1D7F1D801F911F50
:1008C00008950024A7FD00942A173005400550051F
:0E08D00060057005800590050895F894FFCF2F
:1008DE003738392F3435362A3132332D3F303D2BD0
:00000001FF
